{
  "abi": [
    {
      "anonymous": false,
      "inputs": [
        {
          "components": [
            {
              "internalType": "uint256",
              "name": "id",
              "type": "uint256"
            },
            {
              "internalType": "address",
              "name": "author",
              "type": "address"
            },
            {
              "internalType": "uint256",
              "name": "timestamp",
              "type": "uint256"
            },
            {
              "internalType": "string",
              "name": "content",
              "type": "string"
            }
          ],
          "indexed": false,
          "internalType": "struct Social.Post",
          "name": "",
          "type": "tuple"
        }
      ],
      "name": "newPost",
      "type": "event"
    },
    {
      "inputs": [
        {
          "internalType": "string",
          "name": "content",
          "type": "string"
        }
      ],
      "name": "createPost",
      "outputs": [
        {
          "internalType": "uint256",
          "name": "",
          "type": "uint256"
        }
      ],
      "stateMutability": "nonpayable",
      "type": "function"
    },
    {
      "inputs": [],
      "name": "getAllPosts",
      "outputs": [
        {
          "components": [
            {
              "internalType": "uint256",
              "name": "id",
              "type": "uint256"
            },
            {
              "internalType": "address",
              "name": "author",
              "type": "address"
            },
            {
              "internalType": "uint256",
              "name": "timestamp",
              "type": "uint256"
            },
            {
              "internalType": "string",
              "name": "content",
              "type": "string"
            }
          ],
          "internalType": "struct Social.Post[]",
          "name": "",
          "type": "tuple[]"
        }
      ],
      "stateMutability": "view",
      "type": "function"
    },
    {
      "inputs": [
        {
          "internalType": "uint256",
          "name": "",
          "type": "uint256"
        }
      ],
      "name": "posts",
      "outputs": [
        {
          "internalType": "uint256",
          "name": "id",
          "type": "uint256"
        },
        {
          "internalType": "address",
          "name": "author",
          "type": "address"
        },
        {
          "internalType": "uint256",
          "name": "timestamp",
          "type": "uint256"
        },
        {
          "internalType": "string",
          "name": "content",
          "type": "string"
        }
      ],
      "stateMutability": "view",
      "type": "function"
    }
  ],
  "bytecode": {
    "object": "0x608060405234801561001057600080fd5b506107ac806100206000396000f3fe608060405234801561001057600080fd5b50600436106100415760003560e01c80630b1e7f83146100465780633056110014610072578063c7303c6114610087575b600080fd5b61005961005436600461042f565b6100a8565b604051610069949392919061048e565b60405180910390f35b61007a61017a565b6040516100699190610508565b61009a61009536600461056a565b610296565b604051908152602001610069565b600081815481106100b857600080fd5b600091825260209091206004909102018054600182015460028301546003840180549395506001600160a01b039092169390929091906100f7906105dc565b80601f0160208091040260200160405190810160405280929190818152602001828054610123906105dc565b80156101705780601f1061014557610100808354040283529160200191610170565b820191906000526020600020905b81548152906001019060200180831161015357829003601f168201915b5050505050905084565b60606000805480602002602001604051908101604052809291908181526020016000905b8282101561028d57600084815260209081902060408051608081018252600486029092018054835260018101546001600160a01b0316938301939093526002830154908201526003820180549192916060840191906101fc906105dc565b80601f0160208091040260200160405190810160405280929190818152602001828054610228906105dc565b80156102755780601f1061024a57610100808354040283529160200191610275565b820191906000526020600020905b81548152906001019060200180831161025857829003601f168201915b5050505050815250508152602001906001019061019e565b50505050905090565b6000805481906102a7906001610616565b905060006040518060800160405280838152602001336001600160a01b0316815260200142815260200186868080601f01602080910402602001604051908101604052809392919081815260200183838082843760009201829052509390945250508054600181018255908052825160049091027f290decd9548b62a8d60345a988386fc84ba6bc95484008f6362f93160ef3e563810191825560208401517f290decd9548b62a8d60345a988386fc84ba6bc95484008f6362f93160ef3e564820180546001600160a01b039092166001600160a01b031990921691909117905560408401517f290decd9548b62a8d60345a988386fc84ba6bc95484008f6362f93160ef3e565820155606084015193945084939192507f290decd9548b62a8d60345a988386fc84ba6bc95484008f6362f93160ef3e56601906103eb908261069c565b5050507f7249910df7f90feb44bb01f75675ae991d3e45a52cab751cab0561298831c4838160405161041d919061075c565b60405180910390a15090505b92915050565b60006020828403121561044157600080fd5b5035919050565b6000815180845260005b8181101561046e57602081850181015186830182015201610452565b506000602082860101526020601f19601f83011685010191505092915050565b84815260018060a01b03841660208201528260408201526080606082015260006104bb6080830184610448565b9695505050505050565b8051825260018060a01b0360208201511660208301526040810151604083015260006060820151608060608501526105006080850182610448565b949350505050565b6000602080830181845280855180835260408601915060408160051b870101925083870160005b8281101561055d57603f1988860301845261054b8583516104c5565b9450928501929085019060010161052f565b5092979650505050505050565b6000806020838503121561057d57600080fd5b823567ffffffffffffffff8082111561059557600080fd5b818501915085601f8301126105a957600080fd5b8135818111156105b857600080fd5b8660208285010111156105ca57600080fd5b60209290920196919550909350505050565b600181811c908216806105f057607f821691505b60208210810361061057634e487b7160e01b600052602260045260246000fd5b50919050565b8082018082111561042957634e487b7160e01b600052601160045260246000fd5b634e487b7160e01b600052604160045260246000fd5b601f82111561069757600081815260208120601f850160051c810160208610156106745750805b601f850160051c820191505b8181101561069357828155600101610680565b5050505b505050565b815167ffffffffffffffff8111156106b6576106b6610637565b6106ca816106c484546105dc565b8461064d565b602080601f8311600181146106ff57600084156106e75750858301515b600019600386901b1c1916600185901b178555610693565b600085815260208120601f198616915b8281101561072e5788860151825594840194600190910190840161070f565b508582101561074c5787850151600019600388901b60f8161c191681555b5050505050600190811b01905550565b60208152600061076f60208301846104c5565b939250505056fea2646970667358221220e8e51a3fb023efecb5da08086a6df8ba69bb880c536d49f51cc9aea217372ee264736f6c63430008150033",
    "linkReferences": {}
  },
  "methodIdentifiers": {
    "createPost(string)": "c7303c61",
    "getAllPosts()": "30561100",
    "posts(uint256)": "0b1e7f83"
  },
  "id": 0
}