{
  "abi": [
    {
      "anonymous": false,
      "inputs": [
        {
          "components": [
            {
              "internalType": "uint256",
              "name": "id",
              "type": "uint256"
            },
            {
              "internalType": "uint256",
              "name": "timestamp",
              "type": "uint256"
            },
            {
              "internalType": "string",
              "name": "content",
              "type": "string"
            }
          ],
          "indexed": false,
          "internalType": "struct Social.Post",
          "name": "",
          "type": "tuple"
        }
      ],
      "name": "newPost",
      "type": "event"
    },
    {
      "inputs": [
        {
          "internalType": "string",
          "name": "content",
          "type": "string"
        }
      ],
      "name": "createPost",
      "outputs": [],
      "stateMutability": "nonpayable",
      "type": "function"
    },
    {
      "inputs": [
        {
          "internalType": "address",
          "name": "user",
          "type": "address"
        }
      ],
      "name": "getUserPosts",
      "outputs": [
        {
          "components": [
            {
              "internalType": "uint256",
              "name": "id",
              "type": "uint256"
            },
            {
              "internalType": "uint256",
              "name": "timestamp",
              "type": "uint256"
            },
            {
              "internalType": "string",
              "name": "content",
              "type": "string"
            }
          ],
          "internalType": "struct Social.Post[]",
          "name": "",
          "type": "tuple[]"
        }
      ],
      "stateMutability": "view",
      "type": "function"
    },
    {
      "inputs": [],
      "name": "postCount",
      "outputs": [
        {
          "internalType": "uint256",
          "name": "",
          "type": "uint256"
        }
      ],
      "stateMutability": "view",
      "type": "function"
    },
    {
      "inputs": [
        {
          "internalType": "address",
          "name": "",
          "type": "address"
        },
        {
          "internalType": "uint256",
          "name": "",
          "type": "uint256"
        }
      ],
      "name": "posts",
      "outputs": [
        {
          "internalType": "uint256",
          "name": "id",
          "type": "uint256"
        },
        {
          "internalType": "uint256",
          "name": "timestamp",
          "type": "uint256"
        },
        {
          "internalType": "string",
          "name": "content",
          "type": "string"
        }
      ],
      "stateMutability": "view",
      "type": "function"
    }
  ],
  "bytecode": {
    "object": "0x608060405234801561001057600080fd5b5061074b806100206000396000f3fe608060405234801561001057600080fd5b506004361061004c5760003560e01c806317906c2e146100515780635c538df31461006d5780639a2194a91461008f578063c7303c61146100af575b600080fd5b61005a60005481565b6040519081526020015b60405180910390f35b61008061007b3660046103bd565b6100c4565b6040516100649392919061042d565b6100a261009d366004610455565b610193565b60405161006491906104a8565b6100c26100bd36600461050a565b6102ae565b005b600160205281600052604060002081815481106100e057600080fd5b9060005260206000209060030201600091509150508060000154908060010154908060020180546101109061057c565b80601f016020809104026020016040519081016040528092919081815260200182805461013c9061057c565b80156101895780601f1061015e57610100808354040283529160200191610189565b820191906000526020600020905b81548152906001019060200180831161016c57829003601f168201915b5050505050905083565b6001600160a01b0381166000908152600160209081526040808320805482518185028101850190935280835260609492939192909184015b828210156102a3578382906000526020600020906003020160405180606001604052908160008201548152602001600182015481526020016002820180546102129061057c565b80601f016020809104026020016040519081016040528092919081815260200182805461023e9061057c565b801561028b5780601f106102605761010080835404028352916020019161028b565b820191906000526020600020905b81548152906001019060200180831161026e57829003601f168201915b505050505081525050815260200190600101906101cb565b505050509050919050565b60006040518060600160405280600054815260200142815260200184848080601f01602080910402602001604051908101604052809392919081815260200183838082843760009201829052509390945250503381526001602081815260408084208054808501825590855293829020865160039095020193845590850151918301919091558301519293508392909150600282019061034e908261061b565b505060008054915080610360836106db565b91905055507f912e9debedcc04235c73931a15b600a0309bbdb1fac166c203b157c80d0684f7816040516103949190610702565b60405180910390a1505050565b80356001600160a01b03811681146103b857600080fd5b919050565b600080604083850312156103d057600080fd5b6103d9836103a1565b946020939093013593505050565b6000815180845260005b8181101561040d576020818501810151868301820152016103f1565b506000602082860101526020601f19601f83011685010191505092915050565b83815282602082015260606040820152600061044c60608301846103e7565b95945050505050565b60006020828403121561046757600080fd5b610470826103a1565b9392505050565b805182526020810151602083015260006040820151606060408501526104a060608501826103e7565b949350505050565b6000602080830181845280855180835260408601915060408160051b870101925083870160005b828110156104fd57603f198886030184526104eb858351610477565b945092850192908501906001016104cf565b5092979650505050505050565b6000806020838503121561051d57600080fd5b823567ffffffffffffffff8082111561053557600080fd5b818501915085601f83011261054957600080fd5b81358181111561055857600080fd5b86602082850101111561056a57600080fd5b60209290920196919550909350505050565b600181811c9082168061059057607f821691505b6020821081036105b057634e487b7160e01b600052602260045260246000fd5b50919050565b634e487b7160e01b600052604160045260246000fd5b601f82111561061657600081815260208120601f850160051c810160208610156105f35750805b601f850160051c820191505b81811015610612578281556001016105ff565b5050505b505050565b815167ffffffffffffffff811115610635576106356105b6565b61064981610643845461057c565b846105cc565b602080601f83116001811461067e57600084156106665750858301515b600019600386901b1c1916600185901b178555610612565b600085815260208120601f198616915b828110156106ad5788860151825594840194600190910190840161068e565b50858210156106cb5787850151600019600388901b60f8161c191681555b5050505050600190811b01905550565b6000600182016106fb57634e487b7160e01b600052601160045260246000fd5b5060010190565b602081526000610470602083018461047756fea26469706673582212207518c9382a8a52a1e904c50c9c17dfecc1cc6c5d62a0474e18239d9a8b783e1564736f6c63430008150033",
    "linkReferences": {}
  },
  "methodIdentifiers": {
    "createPost(string)": "c7303c61",
    "getUserPosts(address)": "9a2194a9",
    "postCount()": "17906c2e",
    "posts(address,uint256)": "5c538df3"
  },
  "id": 1
}